{
  "contractName": "LipToken",
  "abi": [
    {
      "inputs": [
        {
          "internalType": "string",
          "name": "_name",
          "type": "string"
        },
        {
          "internalType": "string",
          "name": "_symbol",
          "type": "string"
        }
      ],
      "stateMutability": "nonpayable",
      "type": "constructor"
    },
    {
      "anonymous": false,
      "inputs": [
        {
          "indexed": true,
          "internalType": "address",
          "name": "owner",
          "type": "address"
        },
        {
          "indexed": true,
          "internalType": "address",
          "name": "approved",
          "type": "address"
        },
        {
          "indexed": true,
          "internalType": "uint256",
          "name": "tokenId",
          "type": "uint256"
        }
      ],
      "name": "Approval",
      "type": "event"
    },
    {
      "anonymous": false,
      "inputs": [
        {
          "indexed": true,
          "internalType": "address",
          "name": "owner",
          "type": "address"
        },
        {
          "indexed": true,
          "internalType": "address",
          "name": "operator",
          "type": "address"
        },
        {
          "indexed": false,
          "internalType": "bool",
          "name": "approved",
          "type": "bool"
        }
      ],
      "name": "ApprovalForAll",
      "type": "event"
    },
    {
      "anonymous": false,
      "inputs": [
        {
          "indexed": false,
          "internalType": "address",
          "name": "owner",
          "type": "address"
        },
        {
          "indexed": false,
          "internalType": "uint256",
          "name": "id",
          "type": "uint256"
        },
        {
          "indexed": false,
          "internalType": "uint256",
          "name": "dna",
          "type": "uint256"
        }
      ],
      "name": "NewLip",
      "type": "event"
    },
    {
      "anonymous": false,
      "inputs": [
        {
          "indexed": true,
          "internalType": "address",
          "name": "previousOwner",
          "type": "address"
        },
        {
          "indexed": true,
          "internalType": "address",
          "name": "newOwner",
          "type": "address"
        }
      ],
      "name": "OwnershipTransferred",
      "type": "event"
    },
    {
      "anonymous": false,
      "inputs": [
        {
          "indexed": true,
          "internalType": "address",
          "name": "from",
          "type": "address"
        },
        {
          "indexed": true,
          "internalType": "address",
          "name": "to",
          "type": "address"
        },
        {
          "indexed": true,
          "internalType": "uint256",
          "name": "tokenId",
          "type": "uint256"
        }
      ],
      "name": "Transfer",
      "type": "event"
    },
    {
      "inputs": [
        {
          "internalType": "address",
          "name": "to",
          "type": "address"
        },
        {
          "internalType": "uint256",
          "name": "tokenId",
          "type": "uint256"
        }
      ],
      "name": "approve",
      "outputs": [],
      "stateMutability": "nonpayable",
      "type": "function"
    },
    {
      "inputs": [
        {
          "internalType": "address",
          "name": "owner",
          "type": "address"
        }
      ],
      "name": "balanceOf",
      "outputs": [
        {
          "internalType": "uint256",
          "name": "",
          "type": "uint256"
        }
      ],
      "stateMutability": "view",
      "type": "function",
      "constant": true
    },
    {
      "inputs": [
        {
          "internalType": "uint256",
          "name": "tokenId",
          "type": "uint256"
        }
      ],
      "name": "getApproved",
      "outputs": [
        {
          "internalType": "address",
          "name": "",
          "type": "address"
        }
      ],
      "stateMutability": "view",
      "type": "function",
      "constant": true
    },
    {
      "inputs": [
        {
          "internalType": "address",
          "name": "owner",
          "type": "address"
        },
        {
          "internalType": "address",
          "name": "operator",
          "type": "address"
        }
      ],
      "name": "isApprovedForAll",
      "outputs": [
        {
          "internalType": "bool",
          "name": "",
          "type": "bool"
        }
      ],
      "stateMutability": "view",
      "type": "function",
      "constant": true
    },
    {
      "inputs": [
        {
          "internalType": "uint256",
          "name": "",
          "type": "uint256"
        }
      ],
      "name": "lips",
      "outputs": [
        {
          "internalType": "string",
          "name": "name",
          "type": "string"
        },
        {
          "internalType": "uint256",
          "name": "id",
          "type": "uint256"
        },
        {
          "internalType": "uint256",
          "name": "dna",
          "type": "uint256"
        },
        {
          "internalType": "uint8",
          "name": "level",
          "type": "uint8"
        },
        {
          "internalType": "uint8",
          "name": "rarity",
          "type": "uint8"
        }
      ],
      "stateMutability": "view",
      "type": "function",
      "constant": true
    },
    {
      "inputs": [],
      "name": "name",
      "outputs": [
        {
          "internalType": "string",
          "name": "",
          "type": "string"
        }
      ],
      "stateMutability": "view",
      "type": "function",
      "constant": true
    },
    {
      "inputs": [],
      "name": "owner",
      "outputs": [
        {
          "internalType": "address",
          "name": "",
          "type": "address"
        }
      ],
      "stateMutability": "view",
      "type": "function",
      "constant": true
    },
    {
      "inputs": [
        {
          "internalType": "uint256",
          "name": "tokenId",
          "type": "uint256"
        }
      ],
      "name": "ownerOf",
      "outputs": [
        {
          "internalType": "address",
          "name": "",
          "type": "address"
        }
      ],
      "stateMutability": "view",
      "type": "function",
      "constant": true
    },
    {
      "inputs": [],
      "name": "renounceOwnership",
      "outputs": [],
      "stateMutability": "nonpayable",
      "type": "function"
    },
    {
      "inputs": [
        {
          "internalType": "address",
          "name": "from",
          "type": "address"
        },
        {
          "internalType": "address",
          "name": "to",
          "type": "address"
        },
        {
          "internalType": "uint256",
          "name": "tokenId",
          "type": "uint256"
        }
      ],
      "name": "safeTransferFrom",
      "outputs": [],
      "stateMutability": "nonpayable",
      "type": "function"
    },
    {
      "inputs": [
        {
          "internalType": "address",
          "name": "from",
          "type": "address"
        },
        {
          "internalType": "address",
          "name": "to",
          "type": "address"
        },
        {
          "internalType": "uint256",
          "name": "tokenId",
          "type": "uint256"
        },
        {
          "internalType": "bytes",
          "name": "_data",
          "type": "bytes"
        }
      ],
      "name": "safeTransferFrom",
      "outputs": [],
      "stateMutability": "nonpayable",
      "type": "function"
    },
    {
      "inputs": [
        {
          "internalType": "address",
          "name": "operator",
          "type": "address"
        },
        {
          "internalType": "bool",
          "name": "approved",
          "type": "bool"
        }
      ],
      "name": "setApprovalForAll",
      "outputs": [],
      "stateMutability": "nonpayable",
      "type": "function"
    },
    {
      "inputs": [
        {
          "internalType": "bytes4",
          "name": "interfaceId",
          "type": "bytes4"
        }
      ],
      "name": "supportsInterface",
      "outputs": [
        {
          "internalType": "bool",
          "name": "",
          "type": "bool"
        }
      ],
      "stateMutability": "view",
      "type": "function",
      "constant": true
    },
    {
      "inputs": [],
      "name": "symbol",
      "outputs": [
        {
          "internalType": "string",
          "name": "",
          "type": "string"
        }
      ],
      "stateMutability": "view",
      "type": "function",
      "constant": true
    },
    {
      "inputs": [
        {
          "internalType": "uint256",
          "name": "tokenId",
          "type": "uint256"
        }
      ],
      "name": "tokenURI",
      "outputs": [
        {
          "internalType": "string",
          "name": "",
          "type": "string"
        }
      ],
      "stateMutability": "view",
      "type": "function",
      "constant": true
    },
    {
      "inputs": [
        {
          "internalType": "address",
          "name": "from",
          "type": "address"
        },
        {
          "internalType": "address",
          "name": "to",
          "type": "address"
        },
        {
          "internalType": "uint256",
          "name": "tokenId",
          "type": "uint256"
        }
      ],
      "name": "transferFrom",
      "outputs": [],
      "stateMutability": "nonpayable",
      "type": "function"
    },
    {
      "inputs": [
        {
          "internalType": "address",
          "name": "newOwner",
          "type": "address"
        }
      ],
      "name": "transferOwnership",
      "outputs": [],
      "stateMutability": "nonpayable",
      "type": "function"
    },
    {
      "inputs": [
        {
          "internalType": "uint256",
          "name": "_fee",
          "type": "uint256"
        }
      ],
      "name": "updateFee",
      "outputs": [],
      "stateMutability": "nonpayable",
      "type": "function"
    },
    {
      "inputs": [],
      "name": "withdraw",
      "outputs": [],
      "stateMutability": "payable",
      "type": "function",
      "payable": true
    },
    {
      "inputs": [
        {
          "internalType": "string",
          "name": "_name",
          "type": "string"
        }
      ],
      "name": "createRandomLip",
      "outputs": [],
      "stateMutability": "payable",
      "type": "function",
      "payable": true
    },
    {
      "inputs": [],
      "name": "getLips",
      "outputs": [
        {
          "components": [
            {
              "internalType": "string",
              "name": "name",
              "type": "string"
            },
            {
              "internalType": "uint256",
              "name": "id",
              "type": "uint256"
            },
            {
              "internalType": "uint256",
              "name": "dna",
              "type": "uint256"
            },
            {
              "internalType": "uint8",
              "name": "level",
              "type": "uint8"
            },
            {
              "internalType": "uint8",
              "name": "rarity",
              "type": "uint8"
            }
          ],
          "internalType": "struct LipToken.Lip[]",
          "name": "",
          "type": "tuple[]"
        }
      ],
      "stateMutability": "view",
      "type": "function",
      "constant": true
    }
  ],
  "bytecode": "0x6080604052670de0b6b3a76400006008553480156200001d57600080fd5b5060405162003a0f38038062003a0f833981810160405281019062000043919062000291565b818181600090805190602001906200005d9291906200016f565b508060019080519060200190620000769291906200016f565b505050620000996200008d620000a160201b60201c565b620000a960201b60201c565b505062000435565b600033905090565b6000600660009054906101000a900473ffffffffffffffffffffffffffffffffffffffff16905081600660006101000a81548173ffffffffffffffffffffffffffffffffffffffff021916908373ffffffffffffffffffffffffffffffffffffffff1602179055508173ffffffffffffffffffffffffffffffffffffffff168173ffffffffffffffffffffffffffffffffffffffff167f8be0079c531659141344cd1fd0a4f28419497f9722a3daafe3b4186f6b6457e060405160405180910390a35050565b8280546200017d90620003a1565b90600052602060002090601f016020900481019282620001a15760008555620001ed565b82601f10620001bc57805160ff1916838001178555620001ed565b82800160010185558215620001ed579182015b82811115620001ec578251825591602001919060010190620001cf565b5b509050620001fc919062000200565b5090565b5b808211156200021b57600081600090555060010162000201565b5090565b600062000236620002308462000338565b62000304565b9050828152602081018484840111156200024f57600080fd5b6200025c8482856200036b565b509392505050565b600082601f8301126200027657600080fd5b8151620002888482602086016200021f565b91505092915050565b60008060408385031215620002a557600080fd5b600083015167ffffffffffffffff811115620002c057600080fd5b620002ce8582860162000264565b925050602083015167ffffffffffffffff811115620002ec57600080fd5b620002fa8582860162000264565b9150509250929050565b6000604051905081810181811067ffffffffffffffff821117156200032e576200032d62000406565b5b8060405250919050565b600067ffffffffffffffff82111562000356576200035562000406565b5b601f19601f8301169050602081019050919050565b60005b838110156200038b5780820151818401526020810190506200036e565b838111156200039b576000848401525b50505050565b60006002820490506001821680620003ba57607f821691505b60208210811415620003d157620003d0620003d7565b5b50919050565b7f4e487b7100000000000000000000000000000000000000000000000000000000600052602260045260246000fd5b7f4e487b7100000000000000000000000000000000000000000000000000000000600052604160045260246000fd5b6135ca80620004456000396000f3fe60806040526004361061012a5760003560e01c806370a08231116100ab57806395d89b411161006f57806395d89b41146103c6578063a22cb465146103f1578063b88d4fde1461041a578063c87b56dd14610443578063e985e9c514610480578063f2fde38b146104bd5761012a565b806370a08231146102f3578063715018a61461033057806383b5daf7146103475780638da5cb5b146103725780639012c4a81461039d5761012a565b80633ccfd60b116100f25780633ccfd60b1461022657806342842e0e146102305780635ec163db146102595780636352211e1461029a578063698d640c146102d75761012a565b806301ffc9a71461012f57806306fdde031461016c578063081812fc14610197578063095ea7b3146101d457806323b872dd146101fd575b600080fd5b34801561013b57600080fd5b50610156600480360381019061015191906123df565b6104e6565b6040516101639190612e16565b60405180910390f35b34801561017857600080fd5b506101816105c8565b60405161018e9190612e31565b60405180910390f35b3480156101a357600080fd5b506101be60048036038101906101b99190612472565b61065a565b6040516101cb9190612d56565b60405180910390f35b3480156101e057600080fd5b506101fb60048036038101906101f691906123a3565b6106df565b005b34801561020957600080fd5b50610224600480360381019061021f919061229d565b6107f7565b005b61022e610857565b005b34801561023c57600080fd5b506102576004803603810190610252919061229d565b610929565b005b34801561026557600080fd5b50610280600480360381019061027b9190612472565b610949565b604051610291959493929190612e53565b60405180910390f35b3480156102a657600080fd5b506102c160048036038101906102bc9190612472565b610a31565b6040516102ce9190612d56565b60405180910390f35b6102f160048036038101906102ec9190612431565b610ae3565b005b3480156102ff57600080fd5b5061031a60048036038101906103159190612238565b610b33565b60405161032791906130cd565b60405180910390f35b34801561033c57600080fd5b50610345610beb565b005b34801561035357600080fd5b5061035c610c73565b6040516103699190612df4565b60405180910390f35b34801561037e57600080fd5b50610387610db2565b6040516103949190612d56565b60405180910390f35b3480156103a957600080fd5b506103c460048036038101906103bf9190612472565b610ddc565b005b3480156103d257600080fd5b506103db610e62565b6040516103e89190612e31565b60405180910390f35b3480156103fd57600080fd5b5061041860048036038101906104139190612367565b610ef4565b005b34801561042657600080fd5b50610441600480360381019061043c91906122ec565b610f0a565b005b34801561044f57600080fd5b5061046a60048036038101906104659190612472565b610f6c565b6040516104779190612e31565b60405180910390f35b34801561048c57600080fd5b506104a760048036038101906104a29190612261565b611013565b6040516104b49190612e16565b60405180910390f35b3480156104c957600080fd5b506104e460048036038101906104df9190612238565b6110a7565b005b60007f80ac58cd000000000000000000000000000000000000000000000000000000007bffffffffffffffffffffffffffffffffffffffffffffffffffffffff1916827bffffffffffffffffffffffffffffffffffffffffffffffffffffffff191614806105b157507f5b5e139f000000000000000000000000000000000000000000000000000000007bffffffffffffffffffffffffffffffffffffffffffffffffffffffff1916827bffffffffffffffffffffffffffffffffffffffffffffffffffffffff1916145b806105c157506105c08261119f565b5b9050919050565b6060600080546105d790613384565b80601f016020809104026020016040519081016040528092919081815260200182805461060390613384565b80156106505780601f1061062557610100808354040283529160200191610650565b820191906000526020600020905b81548152906001019060200180831161063357829003601f168201915b5050505050905090565b600061066582611209565b6106a4576040517f08c379a000000000000000000000000000000000000000000000000000000000815260040161069b9061300d565b60405180910390fd5b6004600083815260200190815260200160002060009054906101000a900473ffffffffffffffffffffffffffffffffffffffff169050919050565b60006106ea82610a31565b90508073ffffffffffffffffffffffffffffffffffffffff168373ffffffffffffffffffffffffffffffffffffffff16141561075b576040517f08c379a00000000000000000000000000000000000000000000000000000000081526004016107529061308d565b60405180910390fd5b8073ffffffffffffffffffffffffffffffffffffffff1661077a611275565b73ffffffffffffffffffffffffffffffffffffffff1614806107a957506107a8816107a3611275565b611013565b5b6107e8576040517f08c379a00000000000000000000000000000000000000000000000000000000081526004016107df90612f8d565b60405180910390fd5b6107f2838361127d565b505050565b610808610802611275565b82611336565b610847576040517f08c379a000000000000000000000000000000000000000000000000000000000815260040161083e906130ad565b60405180910390fd5b610852838383611414565b505050565b61085f611275565b73ffffffffffffffffffffffffffffffffffffffff1661087d610db2565b73ffffffffffffffffffffffffffffffffffffffff16146108d3576040517f08c379a00000000000000000000000000000000000000000000000000000000081526004016108ca9061302d565b60405180910390fd5b60006108dd610db2565b90508073ffffffffffffffffffffffffffffffffffffffff166108fc479081150290604051600060405180830381858888f19350505050158015610925573d6000803e3d6000fd5b5050565b61094483838360405180602001604052806000815250610f0a565b505050565b6009818154811061095957600080fd5b906000526020600020906004020160009150905080600001805461097c90613384565b80601f01602080910402602001604051908101604052809291908181526020018280546109a890613384565b80156109f55780601f106109ca576101008083540402835291602001916109f5565b820191906000526020600020905b8154815290600101906020018083116109d857829003601f168201915b5050505050908060010154908060020154908060030160009054906101000a900460ff16908060030160019054906101000a900460ff16905085565b6000806002600084815260200190815260200160002060009054906101000a900473ffffffffffffffffffffffffffffffffffffffff169050600073ffffffffffffffffffffffffffffffffffffffff168173ffffffffffffffffffffffffffffffffffffffff161415610ada576040517f08c379a0000000000000000000000000000000000000000000000000000000008152600401610ad190612fcd565b60405180910390fd5b80915050919050565b6008543414610b27576040517f08c379a0000000000000000000000000000000000000000000000000000000008152600401610b1e90612ead565b60405180910390fd5b610b3081611670565b50565b60008073ffffffffffffffffffffffffffffffffffffffff168273ffffffffffffffffffffffffffffffffffffffff161415610ba4576040517f08c379a0000000000000000000000000000000000000000000000000000000008152600401610b9b90612fad565b60405180910390fd5b600360008373ffffffffffffffffffffffffffffffffffffffff1673ffffffffffffffffffffffffffffffffffffffff168152602001908152602001600020549050919050565b610bf3611275565b73ffffffffffffffffffffffffffffffffffffffff16610c11610db2565b73ffffffffffffffffffffffffffffffffffffffff1614610c67576040517f08c379a0000000000000000000000000000000000000000000000000000000008152600401610c5e9061302d565b60405180910390fd5b610c7160006117ce565b565b60606009805480602002602001604051908101604052809291908181526020016000905b82821015610da957838290600052602060002090600402016040518060a0016040529081600082018054610cca90613384565b80601f0160208091040260200160405190810160405280929190818152602001828054610cf690613384565b8015610d435780601f10610d1857610100808354040283529160200191610d43565b820191906000526020600020905b815481529060010190602001808311610d2657829003601f168201915b5050505050815260200160018201548152602001600282015481526020016003820160009054906101000a900460ff1660ff1660ff1681526020016003820160019054906101000a900460ff1660ff1660ff168152505081526020019060010190610c97565b50505050905090565b6000600660009054906101000a900473ffffffffffffffffffffffffffffffffffffffff16905090565b610de4611275565b73ffffffffffffffffffffffffffffffffffffffff16610e02610db2565b73ffffffffffffffffffffffffffffffffffffffff1614610e58576040517f08c379a0000000000000000000000000000000000000000000000000000000008152600401610e4f9061302d565b60405180910390fd5b8060088190555050565b606060018054610e7190613384565b80601f0160208091040260200160405190810160405280929190818152602001828054610e9d90613384565b8015610eea5780601f10610ebf57610100808354040283529160200191610eea565b820191906000526020600020905b815481529060010190602001808311610ecd57829003601f168201915b5050505050905090565b610f06610eff611275565b8383611894565b5050565b610f1b610f15611275565b83611336565b610f5a576040517f08c379a0000000000000000000000000000000000000000000000000000000008152600401610f51906130ad565b60405180910390fd5b610f6684848484611a01565b50505050565b6060610f7782611209565b610fb6576040517f08c379a0000000000000000000000000000000000000000000000000000000008152600401610fad9061306d565b60405180910390fd5b6000610fc0611a5d565b90506000815111610fe0576040518060200160405280600081525061100b565b80610fea84611a74565b604051602001610ffb929190612d06565b6040516020818303038152906040525b915050919050565b6000600560008473ffffffffffffffffffffffffffffffffffffffff1673ffffffffffffffffffffffffffffffffffffffff16815260200190815260200160002060008373ffffffffffffffffffffffffffffffffffffffff1673ffffffffffffffffffffffffffffffffffffffff16815260200190815260200160002060009054906101000a900460ff16905092915050565b6110af611275565b73ffffffffffffffffffffffffffffffffffffffff166110cd610db2565b73ffffffffffffffffffffffffffffffffffffffff1614611123576040517f08c379a000000000000000000000000000000000000000000000000000000000815260040161111a9061302d565b60405180910390fd5b600073ffffffffffffffffffffffffffffffffffffffff168173ffffffffffffffffffffffffffffffffffffffff161415611193576040517f08c379a000000000000000000000000000000000000000000000000000000000815260040161118a90612eed565b60405180910390fd5b61119c816117ce565b50565b60007f01ffc9a7000000000000000000000000000000000000000000000000000000007bffffffffffffffffffffffffffffffffffffffffffffffffffffffff1916827bffffffffffffffffffffffffffffffffffffffffffffffffffffffff1916149050919050565b60008073ffffffffffffffffffffffffffffffffffffffff166002600084815260200190815260200160002060009054906101000a900473ffffffffffffffffffffffffffffffffffffffff1673ffffffffffffffffffffffffffffffffffffffff1614159050919050565b600033905090565b816004600083815260200190815260200160002060006101000a81548173ffffffffffffffffffffffffffffffffffffffff021916908373ffffffffffffffffffffffffffffffffffffffff160217905550808273ffffffffffffffffffffffffffffffffffffffff166112f083610a31565b73ffffffffffffffffffffffffffffffffffffffff167f8c5be1e5ebec7d5bd14f71427d1e84f3dd0314c0f7b2291e5b200ac8c7c3b92560405160405180910390a45050565b600061134182611209565b611380576040517f08c379a000000000000000000000000000000000000000000000000000000000815260040161137790612f6d565b60405180910390fd5b600061138b83610a31565b90508073ffffffffffffffffffffffffffffffffffffffff168473ffffffffffffffffffffffffffffffffffffffff1614806113fa57508373ffffffffffffffffffffffffffffffffffffffff166113e28461065a565b73ffffffffffffffffffffffffffffffffffffffff16145b8061140b575061140a8185611013565b5b91505092915050565b8273ffffffffffffffffffffffffffffffffffffffff1661143482610a31565b73ffffffffffffffffffffffffffffffffffffffff161461148a576040517f08c379a00000000000000000000000000000000000000000000000000000000081526004016114819061304d565b60405180910390fd5b600073ffffffffffffffffffffffffffffffffffffffff168273ffffffffffffffffffffffffffffffffffffffff1614156114fa576040517f08c379a00000000000000000000000000000000000000000000000000000000081526004016114f190612f2d565b60405180910390fd5b611505838383611c21565b61151060008261127d565b6001600360008573ffffffffffffffffffffffffffffffffffffffff1673ffffffffffffffffffffffffffffffffffffffff1681526020019081526020016000206000828254611560919061328d565b925050819055506001600360008473ffffffffffffffffffffffffffffffffffffffff1673ffffffffffffffffffffffffffffffffffffffff16815260200190815260200160002060008282546115b79190613206565b92505081905550816002600083815260200190815260200160002060006101000a81548173ffffffffffffffffffffffffffffffffffffffff021916908373ffffffffffffffffffffffffffffffffffffffff160217905550808273ffffffffffffffffffffffffffffffffffffffff168473ffffffffffffffffffffffffffffffffffffffff167fddf252ad1be2c89b69c2b068fc378daa952ba7f163c4a11628f55a4df523b3ef60405160405180910390a4505050565b600061167c6064611c26565b90506000611690662386f26fc10000611c26565b905060006040518060a001604052808581526020016007548152602001838152602001600160ff1681526020018460ff1681525090506009819080600181540180825580915050600190039060005260206000209060040201600090919091909150600082015181600001908051906020019061170e92919061205c565b50602082015181600101556040820151816002015560608201518160030160006101000a81548160ff021916908360ff16021790555060808201518160030160016101000a81548160ff021916908360ff160217905550505061177333600754611c6b565b7f24d2d558f98bdd9d21339e119fc0b03e213c7d05affd838ac2ee136d90e3bbeb33600754846040516117a893929190612dbd565b60405180910390a1600760008154809291906117c3906133b6565b919050555050505050565b6000600660009054906101000a900473ffffffffffffffffffffffffffffffffffffffff16905081600660006101000a81548173ffffffffffffffffffffffffffffffffffffffff021916908373ffffffffffffffffffffffffffffffffffffffff1602179055508173ffffffffffffffffffffffffffffffffffffffff168173ffffffffffffffffffffffffffffffffffffffff167f8be0079c531659141344cd1fd0a4f28419497f9722a3daafe3b4186f6b6457e060405160405180910390a35050565b8173ffffffffffffffffffffffffffffffffffffffff168373ffffffffffffffffffffffffffffffffffffffff161415611903576040517f08c379a00000000000000000000000000000000000000000000000000000000081526004016118fa90612f4d565b60405180910390fd5b80600560008573ffffffffffffffffffffffffffffffffffffffff1673ffffffffffffffffffffffffffffffffffffffff16815260200190815260200160002060008473ffffffffffffffffffffffffffffffffffffffff1673ffffffffffffffffffffffffffffffffffffffff16815260200190815260200160002060006101000a81548160ff0219169083151502179055508173ffffffffffffffffffffffffffffffffffffffff168373ffffffffffffffffffffffffffffffffffffffff167f17307eab39ab6107e8899845ad3d59bd9653f200f220920489ca2b5937696c31836040516119f49190612e16565b60405180910390a3505050565b611a0c848484611414565b611a1884848484611c89565b611a57576040517f08c379a0000000000000000000000000000000000000000000000000000000008152600401611a4e90612ecd565b60405180910390fd5b50505050565b606060405180602001604052806000815250905090565b60606000821415611abc576040518060400160405280600181526020017f30000000000000000000000000000000000000000000000000000000000000008152509050611c1c565b600082905060005b60008214611aee578080611ad7906133b6565b915050600a82611ae7919061325c565b9150611ac4565b60008167ffffffffffffffff811115611b30577f4e487b7100000000000000000000000000000000000000000000000000000000600052604160045260246000fd5b6040519080825280601f01601f191660200182016040528015611b625781602001600182028036833780820191505090505b5090505b60008514611c1557600182611b7b919061328d565b9150600a85611b8a919061342d565b6030611b969190613206565b60f81b818381518110611bd2577f4e487b7100000000000000000000000000000000000000000000000000000000600052603260045260246000fd5b60200101907effffffffffffffffffffffffffffffffffffffffffffffffffffffffffffff1916908160001a905350600a85611c0e919061325c565b9450611b66565b8093505050505b919050565b505050565b6000804233604051602001611c3c929190612d2a565b6040516020818303038152906040528051906020012060001c90508281611c63919061342d565b915050919050565b611c85828260405180602001604052806000815250611e20565b5050565b6000611caa8473ffffffffffffffffffffffffffffffffffffffff16611e7b565b15611e13578373ffffffffffffffffffffffffffffffffffffffff1663150b7a02611cd3611275565b8786866040518563ffffffff1660e01b8152600401611cf59493929190612d71565b602060405180830381600087803b158015611d0f57600080fd5b505af1925050508015611d4057506040513d601f19601f82011682018060405250810190611d3d9190612408565b60015b611dc3573d8060008114611d70576040519150601f19603f3d011682016040523d82523d6000602084013e611d75565b606091505b50600081511415611dbb576040517f08c379a0000000000000000000000000000000000000000000000000000000008152600401611db290612ecd565b60405180910390fd5b805181602001fd5b63150b7a0260e01b7bffffffffffffffffffffffffffffffffffffffffffffffffffffffff1916817bffffffffffffffffffffffffffffffffffffffffffffffffffffffff191614915050611e18565b600190505b949350505050565b611e2a8383611e8e565b611e376000848484611c89565b611e76576040517f08c379a0000000000000000000000000000000000000000000000000000000008152600401611e6d90612ecd565b60405180910390fd5b505050565b600080823b905060008111915050919050565b600073ffffffffffffffffffffffffffffffffffffffff168273ffffffffffffffffffffffffffffffffffffffff161415611efe576040517f08c379a0000000000000000000000000000000000000000000000000000000008152600401611ef590612fed565b60405180910390fd5b611f0781611209565b15611f47576040517f08c379a0000000000000000000000000000000000000000000000000000000008152600401611f3e90612f0d565b60405180910390fd5b611f5360008383611c21565b6001600360008473ffffffffffffffffffffffffffffffffffffffff1673ffffffffffffffffffffffffffffffffffffffff1681526020019081526020016000206000828254611fa39190613206565b92505081905550816002600083815260200190815260200160002060006101000a81548173ffffffffffffffffffffffffffffffffffffffff021916908373ffffffffffffffffffffffffffffffffffffffff160217905550808273ffffffffffffffffffffffffffffffffffffffff16600073ffffffffffffffffffffffffffffffffffffffff167fddf252ad1be2c89b69c2b068fc378daa952ba7f163c4a11628f55a4df523b3ef60405160405180910390a45050565b82805461206890613384565b90600052602060002090601f01602090048101928261208a57600085556120d1565b82601f106120a357805160ff19168380011785556120d1565b828001600101855582156120d1579182015b828111156120d05782518255916020019190600101906120b5565b5b5090506120de91906120e2565b5090565b5b808211156120fb5760008160009055506001016120e3565b5090565b600061211261210d84613119565b6130e8565b90508281526020810184848401111561212a57600080fd5b612135848285613342565b509392505050565b600061215061214b84613149565b6130e8565b90508281526020810184848401111561216857600080fd5b612173848285613342565b509392505050565b60008135905061218a81613538565b92915050565b60008135905061219f8161354f565b92915050565b6000813590506121b481613566565b92915050565b6000815190506121c981613566565b92915050565b600082601f8301126121e057600080fd5b81356121f08482602086016120ff565b91505092915050565b600082601f83011261220a57600080fd5b813561221a84826020860161213d565b91505092915050565b6000813590506122328161357d565b92915050565b60006020828403121561224a57600080fd5b60006122588482850161217b565b91505092915050565b6000806040838503121561227457600080fd5b60006122828582860161217b565b92505060206122938582860161217b565b9150509250929050565b6000806000606084860312156122b257600080fd5b60006122c08682870161217b565b93505060206122d18682870161217b565b92505060406122e286828701612223565b9150509250925092565b6000806000806080858703121561230257600080fd5b60006123108782880161217b565b94505060206123218782880161217b565b935050604061233287828801612223565b925050606085013567ffffffffffffffff81111561234f57600080fd5b61235b878288016121cf565b91505092959194509250565b6000806040838503121561237a57600080fd5b60006123888582860161217b565b925050602061239985828601612190565b9150509250929050565b600080604083850312156123b657600080fd5b60006123c48582860161217b565b92505060206123d585828601612223565b9150509250929050565b6000602082840312156123f157600080fd5b60006123ff848285016121a5565b91505092915050565b60006020828403121561241a57600080fd5b6000612428848285016121ba565b91505092915050565b60006020828403121561244357600080fd5b600082013567ffffffffffffffff81111561245d57600080fd5b612469848285016121f9565b91505092915050565b60006020828403121561248457600080fd5b600061249284828501612223565b91505092915050565b60006124a78383612c3d565b905092915050565b6124b8816132c1565b82525050565b6124cf6124ca826132c1565b6133ff565b82525050565b60006124e082613189565b6124ea81856131b7565b9350836020820285016124fc85613179565b8060005b858110156125385784840389528151612519858261249b565b9450612524836131aa565b925060208a01995050600181019050612500565b50829750879550505050505092915050565b612553816132d3565b82525050565b600061256482613194565b61256e81856131c8565b935061257e818560208601613351565b6125878161351a565b840191505092915050565b600061259d8261319f565b6125a781856131d9565b93506125b7818560208601613351565b6125c08161351a565b840191505092915050565b60006125d68261319f565b6125e081856131ea565b93506125f0818560208601613351565b6125f98161351a565b840191505092915050565b600061260f8261319f565b61261981856131fb565b9350612629818560208601613351565b80840191505092915050565b6000612642601c836131ea565b91507f5573657220646f65736e2774206861766520656e6f75676820666565000000006000830152602082019050919050565b60006126826032836131ea565b91507f4552433732313a207472616e7366657220746f206e6f6e20455243373231526560008301527f63656976657220696d706c656d656e74657200000000000000000000000000006020830152604082019050919050565b60006126e86026836131ea565b91507f4f776e61626c653a206e6577206f776e657220697320746865207a65726f206160008301527f64647265737300000000000000000000000000000000000000000000000000006020830152604082019050919050565b600061274e601c836131ea565b91507f4552433732313a20746f6b656e20616c7265616479206d696e746564000000006000830152602082019050919050565b600061278e6024836131ea565b91507f4552433732313a207472616e7366657220746f20746865207a65726f2061646460008301527f72657373000000000000000000000000000000000000000000000000000000006020830152604082019050919050565b60006127f46019836131ea565b91507f4552433732313a20617070726f766520746f2063616c6c6572000000000000006000830152602082019050919050565b6000612834602c836131ea565b91507f4552433732313a206f70657261746f7220717565727920666f72206e6f6e657860008301527f697374656e7420746f6b656e00000000000000000000000000000000000000006020830152604082019050919050565b600061289a6038836131ea565b91507f4552433732313a20617070726f76652063616c6c6572206973206e6f74206f7760008301527f6e6572206e6f7220617070726f76656420666f7220616c6c00000000000000006020830152604082019050919050565b6000612900602a836131ea565b91507f4552433732313a2062616c616e636520717565727920666f7220746865207a6560008301527f726f2061646472657373000000000000000000000000000000000000000000006020830152604082019050919050565b60006129666029836131ea565b91507f4552433732313a206f776e657220717565727920666f72206e6f6e657869737460008301527f656e7420746f6b656e00000000000000000000000000000000000000000000006020830152604082019050919050565b60006129cc6020836131ea565b91507f4552433732313a206d696e7420746f20746865207a65726f20616464726573736000830152602082019050919050565b6000612a0c602c836131ea565b91507f4552433732313a20617070726f76656420717565727920666f72206e6f6e657860008301527f697374656e7420746f6b656e00000000000000000000000000000000000000006020830152604082019050919050565b6000612a726020836131ea565b91507f4f776e61626c653a2063616c6c6572206973206e6f7420746865206f776e65726000830152602082019050919050565b6000612ab26029836131ea565b91507f4552433732313a207472616e73666572206f6620746f6b656e2074686174206960008301527f73206e6f74206f776e00000000000000000000000000000000000000000000006020830152604082019050919050565b6000612b18602f836131ea565b91507f4552433732314d657461646174613a2055524920717565727920666f72206e6f60008301527f6e6578697374656e7420746f6b656e00000000000000000000000000000000006020830152604082019050919050565b6000612b7e6021836131ea565b91507f4552433732313a20617070726f76616c20746f2063757272656e74206f776e6560008301527f72000000000000000000000000000000000000000000000000000000000000006020830152604082019050919050565b6000612be46031836131ea565b91507f4552433732313a207472616e736665722063616c6c6572206973206e6f74206f60008301527f776e6572206e6f7220617070726f7665640000000000000000000000000000006020830152604082019050919050565b600060a0830160008301518482036000860152612c5a8282612592565b9150506020830151612c6f6020860182612cb3565b506040830151612c826040860182612cb3565b506060830151612c956060860182612ce8565b506080830151612ca86080860182612ce8565b508091505092915050565b612cbc8161332b565b82525050565b612ccb8161332b565b82525050565b612ce2612cdd8261332b565b613423565b82525050565b612cf181613335565b82525050565b612d0081613335565b82525050565b6000612d128285612604565b9150612d1e8284612604565b91508190509392505050565b6000612d368285612cd1565b602082019150612d4682846124be565b6014820191508190509392505050565b6000602082019050612d6b60008301846124af565b92915050565b6000608082019050612d8660008301876124af565b612d9360208301866124af565b612da06040830185612cc2565b8181036060830152612db28184612559565b905095945050505050565b6000606082019050612dd260008301866124af565b612ddf6020830185612cc2565b612dec6040830184612cc2565b949350505050565b60006020820190508181036000830152612e0e81846124d5565b905092915050565b6000602082019050612e2b600083018461254a565b92915050565b60006020820190508181036000830152612e4b81846125cb565b905092915050565b600060a0820190508181036000830152612e6d81886125cb565b9050612e7c6020830187612cc2565b612e896040830186612cc2565b612e966060830185612cf7565b612ea36080830184612cf7565b9695505050505050565b60006020820190508181036000830152612ec681612635565b9050919050565b60006020820190508181036000830152612ee681612675565b9050919050565b60006020820190508181036000830152612f06816126db565b9050919050565b60006020820190508181036000830152612f2681612741565b9050919050565b60006020820190508181036000830152612f4681612781565b9050919050565b60006020820190508181036000830152612f66816127e7565b9050919050565b60006020820190508181036000830152612f8681612827565b9050919050565b60006020820190508181036000830152612fa68161288d565b9050919050565b60006020820190508181036000830152612fc6816128f3565b9050919050565b60006020820190508181036000830152612fe681612959565b9050919050565b60006020820190508181036000830152613006816129bf565b9050919050565b60006020820190508181036000830152613026816129ff565b9050919050565b6000602082019050818103600083015261304681612a65565b9050919050565b6000602082019050818103600083015261306681612aa5565b9050919050565b6000602082019050818103600083015261308681612b0b565b9050919050565b600060208201905081810360008301526130a681612b71565b9050919050565b600060208201905081810360008301526130c681612bd7565b9050919050565b60006020820190506130e26000830184612cc2565b92915050565b6000604051905081810181811067ffffffffffffffff8211171561310f5761310e6134eb565b5b8060405250919050565b600067ffffffffffffffff821115613134576131336134eb565b5b601f19601f8301169050602081019050919050565b600067ffffffffffffffff821115613164576131636134eb565b5b601f19601f8301169050602081019050919050565b6000819050602082019050919050565b600081519050919050565b600081519050919050565b600081519050919050565b6000602082019050919050565b600082825260208201905092915050565b600082825260208201905092915050565b600082825260208201905092915050565b600082825260208201905092915050565b600081905092915050565b60006132118261332b565b915061321c8361332b565b9250827fffffffffffffffffffffffffffffffffffffffffffffffffffffffffffffffff038211156132515761325061345e565b5b828201905092915050565b60006132678261332b565b91506132728361332b565b9250826132825761328161348d565b5b828204905092915050565b60006132988261332b565b91506132a38361332b565b9250828210156132b6576132b561345e565b5b828203905092915050565b60006132cc8261330b565b9050919050565b60008115159050919050565b60007fffffffff0000000000000000000000000000000000000000000000000000000082169050919050565b600073ffffffffffffffffffffffffffffffffffffffff82169050919050565b6000819050919050565b600060ff82169050919050565b82818337600083830152505050565b60005b8381101561336f578082015181840152602081019050613354565b8381111561337e576000848401525b50505050565b6000600282049050600182168061339c57607f821691505b602082108114156133b0576133af6134bc565b5b50919050565b60006133c18261332b565b91507fffffffffffffffffffffffffffffffffffffffffffffffffffffffffffffffff8214156133f4576133f361345e565b5b600182019050919050565b600061340a82613411565b9050919050565b600061341c8261352b565b9050919050565b6000819050919050565b60006134388261332b565b91506134438361332b565b9250826134535761345261348d565b5b828206905092915050565b7f4e487b7100000000000000000000000000000000000000000000000000000000600052601160045260246000fd5b7f4e487b7100000000000000000000000000000000000000000000000000000000600052601260045260246000fd5b7f4e487b7100000000000000000000000000000000000000000000000000000000600052602260045260246000fd5b7f4e487b7100000000000000000000000000000000000000000000000000000000600052604160045260246000fd5b6000601f19601f8301169050919050565b60008160601b9050919050565b613541816132c1565b811461354c57600080fd5b50565b613558816132d3565b811461356357600080fd5b50565b61356f816132df565b811461357a57600080fd5b50565b6135868161332b565b811461359157600080fd5b5056fea2646970667358221220750c911a7600955752f5f6c153ea054204781ee220abc84ecbd2c8c8c3dd1c9d64736f6c63430008000033",
  "immutableReferences": {},
  "source": "// SPDX-license-Identifier: MIT\n\npragma solidity ^0.8.0;\n\nimport \"@openzeppelin/contracts/token/ERC721/ERC721.sol\";\nimport \"@openzeppelin/contracts/access/Ownable.sol\";\n\ncontract LipToken is ERC721, Ownable {\n    uint256 COUNTER;\n    uint256 fee = 1 ether;\n    struct Lip {\n          string name;\n          uint256 id;\n          uint256 dna;\n          uint8 level;\n          uint8 rarity;\n     }\n\n    Lip[] public lips;\n\n    event NewLip(address owner, uint256 id, uint256 dna);\n\n    constructor(string memory _name, string memory _symbol)\n        ERC721(_name, _symbol)\n        {}\n\n    function createRandNumber(uint256 _mod) internal view returns(uint256) {\n        uint256 randomNum = uint256(keccak256(abi.encodePacked(block.timestamp, msg.sender)));\n        return randomNum % _mod;\n    }   \n\n\n    function updateFee(uint256 _fee) external onlyOwner(){\n        fee = _fee;\n    }\n\n    // Creation\n    function _creteLip(string memory _name) internal{\n        // creating random rarity\n        uint8 randRarity = uint8(createRandNumber(100));\n        // creating random DNA\n        uint256 randDna = createRandNumber(10**16);\n       \n        Lip memory newLip = Lip(_name,COUNTER, randDna, 1, randRarity);\n        lips.push(newLip);\n        _safeMint(msg.sender, COUNTER);\n        emit NewLip(msg.sender, COUNTER , randDna);\n        COUNTER++;\n    }\n\n    function withdraw() external payable onlyOwner(){\n        address payable _owner = payable(owner());\n        _owner.transfer(address(this).balance);\n    } \n\n    function createRandomLip(string memory _name) public payable{\n        // require is like an if condition\n        // msg.value hold what user sent to the SC\n        require(msg.value == fee, \"User doesn't have enough fee\");\n        _creteLip(_name);\n    }\n\n\n    // Getters\n    function getLips() public view returns(Lip[] memory){\n        return lips;\n    }   \n}",
  "sourcePath": "/Users/themacstore/active_projects/LipToken/lip_token_frontend/contracts/LipToken.sol",
  "compiler": {
    "name": "solc",
    "version": "0.8.0+commit.c7dfd78e.Emscripten.clang"
  },
  "schemaVersion": "3.4.4",
  "updatedAt": "2022-01-11T23:35:34.304Z",
  "networkType": "ethereum",
  "devdoc": {
    "kind": "dev",
    "methods": {
      "approve(address,uint256)": {
        "details": "See {IERC721-approve}."
      },
      "balanceOf(address)": {
        "details": "See {IERC721-balanceOf}."
      },
      "getApproved(uint256)": {
        "details": "See {IERC721-getApproved}."
      },
      "isApprovedForAll(address,address)": {
        "details": "See {IERC721-isApprovedForAll}."
      },
      "name()": {
        "details": "See {IERC721Metadata-name}."
      },
      "owner()": {
        "details": "Returns the address of the current owner."
      },
      "ownerOf(uint256)": {
        "details": "See {IERC721-ownerOf}."
      },
      "renounceOwnership()": {
        "details": "Leaves the contract without owner. It will not be possible to call `onlyOwner` functions anymore. Can only be called by the current owner. NOTE: Renouncing ownership will leave the contract without an owner, thereby removing any functionality that is only available to the owner."
      },
      "safeTransferFrom(address,address,uint256)": {
        "details": "See {IERC721-safeTransferFrom}."
      },
      "safeTransferFrom(address,address,uint256,bytes)": {
        "details": "See {IERC721-safeTransferFrom}."
      },
      "setApprovalForAll(address,bool)": {
        "details": "See {IERC721-setApprovalForAll}."
      },
      "supportsInterface(bytes4)": {
        "details": "See {IERC165-supportsInterface}."
      },
      "symbol()": {
        "details": "See {IERC721Metadata-symbol}."
      },
      "tokenURI(uint256)": {
        "details": "See {IERC721Metadata-tokenURI}."
      },
      "transferFrom(address,address,uint256)": {
        "details": "See {IERC721-transferFrom}."
      },
      "transferOwnership(address)": {
        "details": "Transfers ownership of the contract to a new account (`newOwner`). Can only be called by the current owner."
      }
    },
    "version": 1
  },
  "userdoc": {
    "kind": "user",
    "methods": {},
    "version": 1
  }
}